:100000002839002019010000150100001501000029
:1000100000000000000000000000000000000000E0
:1000200000000000000000000000000015010000BA
:100030000000000000000000150100001501000094
:100040001501000015010000150100001501000058
:10005000FD0C000015010000150100008D2B0000B3
:100060001501000015010000150100001501000038
:100070001501000015010000150100001501000028
:100080001501000015010000150100001501000018
:100090001501000015010000150100001501000008
:1000A00015010000150100001501000015010000F8
:1000B0000000000010B5064C2378002B07D1054B3B
:1000C000002B02D0044800E000BF0123237010BDC4
:1000D0008C04002000000000D04B0000084B10B53D
:1000E000002B03D00749084800E000BF0748036819
:1000F000002B00D110BD064B002BFBD09847F9E731
:100100000000000090040020D04B0000D04B000005
:1001100000000000FEE70000F8B5234A234B9A4296
:1001200009D0224B204A03E01168196004330432DD
:100130001F498B42F8D31F4B02E000221A600433A0
:100140001D4A9342F9D31D4AFF211D4B8B439360F7
:10015000FD3990235B001B4AD1501B4AD3780325FD
:10016000AB4302242343D370D3780C27BB43082628
:100170003343D370154B987B302290432022104399
:100180009873997BB943314399739A7BAA4322436D
:100190009A730F4A516880230B43536004F0B0FAFE
:1001A00003F0F0FAFEE7C046D04B0000000000204C
:1001B0008C0400208C0400202429002000ED00E0A5
:1001C0000000000000700041005000410048004164
:1001D00000400041EFF31083036072B6BFF35F8FFE
:1001E0007047BFF35F8F036883F310887047000088
:1001F00010B5044B1C6800F0E1FC0100200000F089
:10020000F1FC10BDA804002010B5044B1C6800F0E0
:10021000DEFC0100200000F0E5FC10BDA804002079
:1002200070B50425002407E00D4AB358002B00D018
:10023000984770BD013AD5B2AC42FAD82B195B1081
:10024000DAB2032AF5D8FF210B40DE0004498919F0
:1002500049688142E8D0EDD20132D4B2ECE7C04621
:10026000AC04002010B5002309E0084AD90050185A
:100270000124644244600020885001339BB2032B68
:10028000F3D9034800F0C4FC10BDC046AC04002004
:1002900021020000F0B5D6464F464646C0B584B0B0
:1002A0000023032B0CD8DC00324A12195268824218
:1002B00002D00133DBB2F4E72E4BE150012600E01F
:1002C000002600290CD0002E42D10023032B11D888
:1002D000DA00284D5259002A07D00133DBB2F5E786
:1002E000002E40D000F0E0FC37E0DC0061512C191A
:1002F00060600126002201E00132D2B2032A27D831
:10030000032B25D801931B49DC000C196768D40026
:10031000091949688F42EFD24C1CEDD002A98C46D6
:10032000144CA046D400A14644464C44654682CCB9
:1003300082C50199C9008A4649464144444654440D
:10034000A0CCA0C145465544614690C990C5D3E7AD
:10035000002E0BD0012100F0A7FC04B01CBC90467D
:100360009946A246F0BD0D204042F6E70D204042DE
:10037000F3E7C046AC04002010B584B01438848B79
:1003800001AB1C8014000292064A5A8003911900A6
:1003900000F062FF002802D1200004B010BD04006C
:1003A000FAE7C0460080FFFF10B584B01438848B94
:1003B00001AB1C8014000292064A5A800391190076
:1003C00000F04AFF002802D1200004B010BD040054
:1003D000FAE7C0460180FFFF70B504000D00431E20
:1003E0009841C0B25E22074900F0BCFB2900200002
:1003F00000F0E0FE002803D1034BA361034B6361CF
:1004000070BDC046B8490000A90300007903000090
:1004100010B500F0E3FE10BD8905890D8023DB00D7
:100420001A400A43828310007047000070B586B0FE
:10043000040016001D006B46D9710733828B03A997
:100440000A8001224A6000224A808B6000F004FF8B
:10045000002801D006B070BD03A9044B4B808E600C
:100460004D60200000F0F8FEF4E7C0460180FFFF79
:10047000143008600020704770B504000D001600AD
:1004800000280ED000290AD001203422064900F0AD
:1004900069FB2368320029002000984770BD0020C6
:1004A000F3E70020F1E7C046D449000070B504002E
:1004B0000D00160000280ED000290AD001203D2290
:1004C000064900F04FFB636832002900200098477E
:1004D00070BD0020F3E70020F1E7C046D4490000DA
:1004E00070B504000D00002817D0002913D001209A
:1004F00040220B4900F036FB6560201D290000F00A
:10050000E7FF002806DB074BA382074B2361074B5D
:10051000E360002070BD0020EAE70020E8E7C04665
:10052000E84900000080FFFFC505000091050000BC
:1005300010B50400431E9841C0B25722034900F091
:1005400011FB201D01F0C0F810BDC046E8490000B5
:1005500030B587B004000D00002815D0002911D057
:100560000120B322094900F0FDFA2B6803936B6860
:100570000493AB6801930593201D03A901F0BAF819
:1005800007B030BD0020ECE70020EAE7E8490000B2
:1005900070B584B004000E001500431E9841C0B22F
:1005A000A322074900F0DEFA20000C380023029352
:1005B0000196039501A9FFF7CBFF04B070BDC046BB
:1005C000E849000070B584B004000E001500431E19
:1005D0009841C0B28722074900F0C4FA20000C38C5
:1005E000029600230193039501A9FFF7B1FF04B020
:1005F00070BDC046E849000070B504000D00002839
:100600000CD0002908D00120BD22054900F0AAFA2B
:100610000C342C60002070BD0020F5E70020F3E7CB
:10062000E849000010B50100002001E0013040B2AF
:1006300003280FDC4201094B9B185A788A420BD0E1
:100640004301064C1B5D002BF0D10F330B4093424E
:10065000ECD101E00120404210BDC046CC04002096
:100660000020704770B504000D00FFF7DBFF42016A
:10067000064B9B189B78032B01D0002070BD034BC9
:1006800098188369290020009847F7E7CC040020D8
:10069000F0B587B005000F000192FFF7C3FF04001B
:1006A0004601484A9619002F51D1130042010020FB
:1006B000F070D35C002B0ED06201424B9B180122DC
:1006C0009A7064013F4B1C19E369E178019A280094
:1006D000984707B0F0BDB3780C243457032B08D0EB
:1006E00032000C3270780021F36998470223B3700E
:1006F000EFE7707832000C320121F3699847002847
:1007000010D00523B370033BF370002C08DB737823
:10071000802040421843C0B2012102F04DF8D8E7D2
:100720007078F9E70423B370717800220392049281
:10073000002C09DB843B0B43DAB203A802720123CD
:10074000437202F019F9C4E70F220A40F5E7012FBE
:100750000AD0022F1DD0032F2CD04201194B9B1819
:1007600006229A70DA70ACE7164B42019918022003
:10077000C870D35C002B05D06201124B9B18052278
:100780009A709EE702228A700021280002F014F875
:1007900097E70C4B420199180420C870D35C002BDA
:1007A00005D06201074B9B1801229A7089E702234A
:1007B0008B708EE74201034B9B1800229A70053222
:1007C000DA707EE7CC040020F8B50500FFF72AFFB9
:1007D0000600430108331D4CE418043421002800AE
:1007E00002F090F8C0B208280BD00121280001F0D7
:1007F000E3FF802040422843C0B2012101F0DCFF2A
:10080000F8BD0021280001F0D7FF80277F422F4349
:10081000FFB20021380001F0CFFF72010B4B9B1893
:1008200001229A705B692100280098470028E7D1CF
:100830007601064B9E190523B3700121280001F0B3
:10084000BBFF0121380001F0B7FFD9E7CC0400203D
:1008500010B501F0A7FC002820DB80220021104801
:1008600003F0B4FF00220AE051010D4B5B18FF2199
:1008700059700C4959619961D9610132D2B2032A88
:10088000F2D90949002002F069F90849012002F073
:1008900065F90749022002F061F9002010BDC04649
:1008A000CC04002061060000C907000065060000B6
:1008B0009106000010B502F03FF910BD10B501F02F
:1008C000C1FC10BD10B501F0E5FC10BD10B501F084
:1008D000E9FC10BD10B501F0F5FC10BDF8B5050040
:1008E0000E001700FFF79EFE002814DAFF20FFF726
:1008F00099FE041E12DB3A003100280001F0ECFCE6
:10090000002807DB074A640113195D7003231E40AA
:10091000A6540020F8BD14204042FBE715204042B9
:10092000F8E7C046CC04002010B582B200210020B8
:10093000FFF7D4FF10BD000070B50500FFF772FE91
:10094000041E07DB280001F05FFD6401024B1C1947
:10095000FF23637070BDC046CC04002070B5050055
:10096000FFF760FE041E17DB43010D4A9B5C002B62
:100970000AD1022162010A4B9B189970280001F0EC
:100980009FFD002802DB70BD0121F3E76401044BE9
:100990001C190023A370F6E712204042F3E7C0467B
:1009A000CC040020F0B5D6464F464646C0B586B0CA
:1009B0000500067A3000FFF735FE0700F6096B7A6E
:1009C0005A1E9341DCB26B68984600286BDB04A882
:1009D000FFF700FC7A01374B9B189A7817236B447A
:1009E0001A701B78012B0ED004A8FFF7FAFB17230F
:1009F0006B441B78DBB2052B2BD0062B56D0002B7B
:100A000029D001201FE02B4B99467B019A464B468B
:100A1000534403229A7004A8FFF7E3FB4B46524667
:100A2000D35C002B1AD0297A2B680193434602939A
:100A3000002E35D0802252420A43D2B201A802725F
:100A4000447201F099FF06B01CBC90469946A2463C
:100A5000F0BD0220F7E713204042F4E77B01154A7E
:100A6000D218937CD47C24021B199BB2002B06D194
:100A7000042393700023984601240126D3E77F01C5
:100A80000C4AD7190C22BA56D60F984500D9984669
:100A9000002A01DB0024C6E798459B415C42C2E77F
:100AA0000F220A40CAE712204042CCE71020404201
:100AB000C9E7C046CC04002070B50400002905D069
:100AC000012924D0022101F077FE70BDFFF7AAFDB5
:100AD000051E19DB0221200001F06EFE0028F4D073
:100AE0000021200001F068FE0028EEDB6D01094BBB
:100AF0005D190123AB700233EB70EB690022032117
:100B0000200098470020E0E712204042DDE701F096
:100B100053FEDAE7CC04002070B50D001400FFF797
:100B200081FD0300002C08D0002B05DB012D0BD02C
:100B3000002D04D0022D0CD070BD084CF4E740010C
:100B4000074B18184461F7E74001054B18188461FA
:100B5000F2E74001024B1818C461EDE7610600009E
:100B6000CC040020002800D100BE70470368002B91
:100B700003D08B4203D01B68F9E7002070470120A7
:100B8000FCE7000070B505000E000468FFF7EEFFFB
:100B900001235840C0B24F220749FFF7E3FF2B68FB
:100BA000002B03D12E60336005E01C002368002B6E
:100BB000FBD12660336070BD044A000010B503010C
:100BC0001B1A58011D301E2103F0E4FC10BD10B5A6
:100BD00003011B1A58010230032103F0DBFC6423DC
:100BE000584310BD0139FDD87047000010B5074AC1
:100BF000536806210B43536000F0FAF800F002FE40
:100C000000F026FEFF2000F0D3F810BD00400041A8
:100C1000214B5B78DB09FBD11F4B5B78DB09FBD1F8
:100C20001D4B1B789B070AD500221B4B1A701A4BD1
:100C30005B78DB09FBD1184B5B78DB09FBD1012228
:100C4000154B1A70144B5B78DB09FBD1124B5B78A8
:100C5000DB09FBD1104B00229A705A605A61B03206
:100C60009A610E4ADA611A7802210A43D2B21A70E6
:100C7000094B5B78DB09FBD1094B102280215A50CC
:100C8000BFF34F8FBFF36F8F0131FF315A501A609E
:100C9000044B186000207047001800400A0A000941
:100CA00000E100E04C05002030B50023032B0BD8F9
:100CB000DC00104A12195268824202D00133DBB2C2
:100CC000F4E70C4BE25C00E0FF22FF2A0ED0002983
:100CD00006D101239340084A93601361002030BD80
:100CE00001239340044AD3600020F8E70D204042DE
:100CF000F5E7C0463C4A000000180040F0B583B05C
:100D0000274B1A69D9680A400192019A1A61254B4A
:100D10001868431E9841C0B2D2222349FFF722FF30
:100D200001256D4231E0DB00204AD3185D686B1C61
:100D300003D01C4B1B68280098470122A240019B4E
:100D400093430193019803F0B1FC013844B2631C52
:100D500014D00426002001E00139CEB2B042E6D81A
:100D600033185B10D9B2FF221340DF000F4ABA5C80
:100D7000A242D8D0F0DA0131C8B2EFE7084B1A69C5
:100D8000D9680A400192019A1A61019B002B05D093
:100D9000019803F08BFC013844B2D8E703B0F0BDF2
:100DA000001800404C050020244A00003C4A000086
:100DB000C30709D50B4B802252009A600A4A5A6039
:100DC000084B5B78DB09FBD1030709D5054B0422EF
:100DD000FF329A60054A5A60024B5B78DB09FBD10F
:100DE0007047C046000C00400007010003030100EB
:100DF000064B1A7AD2B21A725A7AD2B25A729A7AC6
:100E0000D2B29A72DA7AD2B2DA7270470004004033
:100E1000024B9C466044800AC0B2704700F8FFBD98
:100E2000C369DB0708D40368022213430360C36964
:100E30009B07FCD10020704704204042FBE70000E4
:100E400010B5FFF7E5FF0023012B0BD85A00D2188D
:100E5000D100094A8A5C904202D00133DBB2F3E749
:100E600058B207E0E622920004490020FFF77AFE1C
:100E70000120404210BDC046784A00005C4A000094
:100E800070B505000C000800FFF7DAFFC0B2E36997
:100E9000DB071DD443001B18DA00294B9B185A6846
:100EA0001C231A40E3699B07FCD123689B0709D5E3
:100EB000236802218B432360E3699B07FCD1E3692C
:100EC0009B07FCD4012313432360E3699B07FCD1F8
:100ED000E369DB07FCD443001B18DA00184B9B18AE
:100EE0005B682360E3699B07FCD143001B18DA00B1
:100EF000134B9B189B686360E3695B07FCD442005B
:100F00001218D1000E4B5B18DA68E260DA7903231D
:100F10001A40AA81023B93429B415B42626A0949A3
:100F20000A409B0313436362E3695B07FCD44300FD
:100F30001818C200024B9B185B8AEB81002070BD21
:100F4000784A0000FFBFFFFF70B505000469236801
:100F5000DB0E01261E40431E9841C0B28E4A8F49C7
:100F6000FFF700FE6B68012B4DD063688C4A13407D
:100F70006360E3695B07FCD42B885A054ED56A8809
:100F8000D20704D56A888021C9000A436A805B00C1
:100F9000844A1A40E3695B07FCD4636A8021C90173
:100FA0000B4013438022120213436362E3695B0721
:100FB000FCD42E697C4A337EDBB21800511E002A15
:100FC00002D00A009B07F6D02368DB0E01221A40EC
:100FD000E3695B07FCD4638B9BB2C10700D48FE04D
:100FE0009A072FD5012222766A88802149010A4377
:100FF0006A806A886D490A406A80DB0700D4C6E0CF
:1010000005204042A2E0002EAFD062688023DB02C0
:1010100013436360E3695B07FCD4ADE75B00FF2229
:1010200013406A8801210A401A43E3695B07FCD434
:10103000636A8021C9010B4013436362E3695B0764
:10104000FCD4B6E75B071BD46B885B0534D52A88D4
:101050001212520006231A40E3695B07FCD4636A4C
:101060008021C9010B401343F12213436362E369FA
:101070005B07FCD46B884E4A13406B80002065E010
:101080006B68002B04DD6B888022520113436B8058
:101090006B881BB2002B06DB6B88444A13406B80C5
:1010A0000220404252E06268C0239B021343636007
:1010B000E3695B07FCD4EFE76868002811D16B880F
:1010C0001BB2002B04DB6B88384A13406B803DE079
:1010D0006268C0239B0213436360E3695B07FCD42F
:1010E000F1E7AB681A782823E254E3695B07FCD484
:1010F000AB680133AB606B68013B6B60002025E09F
:10110000810747D5696800293CD05B073AD401398B
:101110006960002901D1002A1BD0012917D06B6812
:10112000002B07D16B881BB2002B1BDB6B881F4A7F
:1011300013406B80AA68531CAB60E3695B07FCD467
:101140002823E35C137002232376002070BD002A5D
:10115000E5D062688023DB0213436360E3695B07C9
:10116000FCD4DCE76368114A13406360E3695B0702
:10117000FCD46268C0239B0213436360E3695B078E
:10118000FCD4D3E70223237602204042DEE704208A
:101190004042DBE70020D9E7940500005C4A0000EC
:1011A000FFFFFBFFFE070000FFFF0000FFFEFFFF49
:1011B000FFFBFFFF70B504000D00431E9841C0B255
:1011C000044A0549FFF7CEFC256129002000FFF7FE
:1011D00057FE70BD070500005C4A000070B50400B2
:1011E000194D431E9841C0B2184A2900FFF7BAFCB6
:1011F00024692000431E9841C0B2154A2900FFF718
:10120000B1FC2368022213432360E3699B07FCD1EE
:1012100004201049E3695B07FCD4628B12090323A5
:101220001340012B0BD001390029F3DC01380028D1
:1012300007D010236383E3695B07FCD4E9E7002050
:1012400070BD06204042FBE75C4A00002405000018
:10125000F4050000FFFF0000F8B505000E0004696A
:10126000954F431E9841C0B2944A3900FFF77AFC6B
:101270002869431E9841C0B2B822D2003900FFF756
:1012800071FC3000431E9841C0B28D4A3900FFF70F
:1012900069FC6B88DB0500D50BE1728880235B005D
:1012A0009C461A4372802A00310089C989C262684B
:1012B000634613436360E3695B07FCD42800FFF7D0
:1012C00043FE002800D19DE06B887E4A13406B806E
:1012D000F8BD05204042A6E073881BB2002B04DB5A
:1012E0006B88784A13406B80F2E76268C0239B02E8
:1012F00013436360E3695B07FCD4F1E753071BD436
:101300006B885B0534D52A881212520006231A40D6
:10131000E3695B07FCD4636A8021C9010B40134376
:10132000F12213436362E3695B07FCD46B88664A6E
:1013300013406B80002065E06B68002B04DD6B8838
:101340008022520113436B806B881BB2002B06DB9B
:101350006B885C4A13406B800220404252E0626816
:10136000C0239B0213436360E3695B07FCD4EFE790
:101370006868002811D16B881BB2002B04DB6B88D6
:10138000504A13406B803DE06268C0239B021343C8
:101390006360E3695B07FCD4F1E7AB681A78282344
:1013A000E254E3695B07FCD4AB680133AB606B6864
:1013B000013B6B60002025E0BB0778D56B68002BF4
:1013C0006DD052076BD4013B6B60002B01D100291B
:1013D0004CD0012B48D06B68002B07D16B881BB217
:1013E000002B4CDB6B88374A13406B80AA68531C78
:1013F000AB60E3695B07FCD42823E35C1370022332
:10140000237600206B88DB0500D461E728692F4A2A
:10141000037EDBB21F00511E002A00D159E70A00EB
:101420009B07F5D00020002800D055E72368DB0E8D
:1014300001211940E3695B07FCD4628B92B2FB0780
:10144000BAD5930700D459E7012323766B8880210E
:1014500049010B436B806B881A490B406B80D307A3
:1014600022D505204042CDE70029B4D06268802310
:10147000DB0213436360E3695B07FCD4ABE763689B
:10148000104A13406360E3695B07FCD46268C023C1
:101490009B0213436360E3695B07FCD4A2E702236A
:1014A000237602204042ADE704204042AAE7002014
:1014B000A8E7062040420BE75C4A0000BF05000099
:1014C000C1050000FFFEFFFFFFFBFFFFFFFF000065
:1014D000F8B506000C000800FFF79AFC002301E0B5
:1014E0000133DBB2022B09D81901C9186D4A521811
:1014F000127C9042F4D16B4D6D1800E00025002E57
:1015000000D182E0002C00D17DE00120664A6749CD
:10151000FFF728FB002D00D1C0E0E369DB0721D4F1
:101520002A786B781B021343AA7812041343EA78D3
:1015300012061A431C231A40E3699B07FCD1236857
:101540009B0709D5236802218B432360E3699B072E
:10155000FCD1E3699B07FCD4012313432360E369B7
:101560009B07FCD1E369DB07FCD434602B786A78F5
:1015700012021A43AB781B041A43EB781B06134381
:101580001C221340082B42D0002C00D182E0002DF9
:1015900000D17DE00120464A4449FFF7E3FA2B7869
:1015A0006A7812021A43AB781B041A43EB781B06C5
:1015B0001343404A13402360E3699B07FCD12B7916
:1015C0006A7912021A43AB791B041A43EB791B06A2
:1015D0001343394A13408022920213436360E36944
:1015E0005B07FCD12B7B23736A7B3023E2542B797E
:1015F0005B0751D101233371AA7BEB7B1B021343A1
:10160000F3800020F8BD002080E700207EE7002C5A
:101610003CD0002D38D00120284A2449FFF7A2FAF7
:101620002B786A7812021A43AB781B041A43EB78C2
:101630001B0613431F4A13402360E3699B07FCD139
:101640002B796A7912021A43AB791B041A43EB799E
:101650001B0613431A4A13401A4A13436360E36993
:101660005B07FCD12B7A6A7A12021A43AB7A1B040D
:101670001A43EB7A1B06134363626A7B3023E254FE
:10168000E369002BFCD1B2E70020C5E70020C3E7E7
:10169000002080E700207EE70223ACE70D204042D7
:1016A000B0E7C046A84A0000250900005C4A0000D7
:1016B000EF080000FCFEFFFFBF1DFDFF0309000057
:1016C000BFDDFDFF4002020010B5041E0ED003680E
:1016D000002B09D00120982212010549FFF742FA98
:1016E0002068FFF79DFB10BD0020F4E70020F2E723
:1016F0005C4A0000F0B5CE46474680B589B08146C9
:101700000D0004680B6803934B6804930023059352
:1017100006930679002814D0002C10D00120374AF7
:101720003749FFF71FFAE3695B0764D1E3699B0759
:10173000FCD123689B0720D41420404256E00020AF
:10174000EDE70020EBE700222DE048780002474655
:101750000743B84602310391013205924246A26224
:101760005BB2002B35DB002000283ADB0598AB6824
:10177000984202D3069A934233D9237EDBB25A07AA
:10178000E1D5A16A049A002A08D0501C0490117077
:10179000012E03D9901C0490090A5170069A0192F7
:1017A000013206920122002ADAD10699059A914265
:1017B000D6D34946C888D907D2D50399002906D07F
:1017C000481C039008788046012EBED8C4E78046A6
:1017D000C2E701235B4263838133237613204042B7
:1017E000C2E7237E9B07FCD00323237609B00CBC01
:1017F00090469946F0BD04204042F7E7850A000074
:101800005C4A00000F4B196A090C1A6A920F920782
:1018100009040D4801400A430C490A431A629A69B7
:1018200002210A439A611A7F1D310A401A77054B3B
:10183000DB681B07FBD5034A136A80210B43136245
:101840007047C046000800400000FF0F0203000080
:1018500002221A4B9A84194BDB68DB06FBD5184A27
:10186000164BDA62174B1B689B0E3F2B1ED09B0258
:10187000802292001343114A936222239384938C13
:101880005B0716D50D4BDB68DB06FBD50B4A938C4B
:1018900080210B439BB293840B4B5B78DB09FBD11C
:1018A000064A936902218B4393617047FC23DB0155
:1018B000E1E7024BDB68DB06FBD5E7E70008004009
:1018C0000000010424608000000C004000207047EC
:1018D000124B1A68530B1F210B40900C0140D00D86
:1018E000072202401F2B12D01F2912D0072A12D024
:1018F0009B010B4312031343094A1385D378032139
:101900000B43D370D3780C210B43D37070471A3B31
:10191000EAE70239EAE7023AEAE7C04624608000D3
:101920000050004110B5837C0F221340C17C083A5F
:101930000A40012A0DD01A000832520119498C467A
:1019400062441021D1715B01174A944663441970B7
:1019500010BD4A060CD5C27C40218A43C2741A00CD
:10196000083252010F4CA446624480241471517114
:10197000C27C08218A43C2745A010C498918002488
:101980008C728C7608335B0106498C4663446F2168
:10199000D971054B9C4662441170054B9B68807C55
:1019A0009847D5E70050004108510041D806002073
:1019B0001006002010B5827C0F23134020228A409D
:1019C000D2B25B0105498C4663441A70044B1B6913
:1019D0008268807C0121984710BDC04608510041B3
:1019E0001006002010B5837CFF2B02D0C27C52066B
:1019F00000D410BDC27C4024A243C274024A1469C0
:101A000082681800A047F4E710060020F0B583B004
:101A1000847C0F232340184D2E8801AD2E80FF2C8F
:101A20001ED0C47C64061BD500291BD01C000834C2
:101A30006401124DAC4664448025257101AD6E5C95
:101A40001C00083464010D4FBC466444E671695CB7
:101A50005B010B4CA446634419701100FFF7C2FFF1
:101A600003B0F0BD1C0008346401044DAC4664446E
:101A700040256571E2E7C046DC4A000000500041A5
:101A800008510041F0B583B0837C0F2213403C4ADB
:101A9000948801AA14805A013A4CA418002933D022
:101AA0001A0008325201384D525D120907251540BF
:101AB000C27C072616400A01A218947AE4B2022DCD
:101AC0002AD0A40744D5947A0225AC43947201AC81
:101AD000655C1A00083252012B4FBC466244D57136
:101AE000625C5B01294CA44663441A70012E45D107
:101AF000C37C5B0642D5C37CDB0999423ED0002201
:101B00001900FFF783FF39E01A00083252011E4D19
:101B1000555D07221540CBE7E507D2D5947A01251C
:101B2000AC43947201AC655C1A0008325201164E47
:101B3000B4466244D571625C5B01144CA4466344B4
:101B40001A704B1E9941C9B20422FFF75FFF15E0DE
:101B50005A00521812010B4882180020907201A8F6
:101B6000445C1A0008325201074DAC466244D471FD
:101B7000425C5B0105498C4663441A7003B0F0BDBA
:101B8000DC4A0000D8060020005000410851004106
:101B900070B5002417E0104DA600331998001030DE
:101BA000281804300321FFF71DFF32199300EB18AA
:101BB0002633FF221A703619B300ED18273500239B
:101BC0002B700134E4B2082CE5D9602200210348CF
:101BD00002F0FCFD70BDC04610060020D8060020B3
:101BE000F0B5C64600B505000E00837C0F241C40EE
:101BF0006201564B9B18002958D059698904890CF9
:101C00002B8A534A934253D0013B1BB20B40EA7CD0
:101C100007271740002E07D02200083252014D48F6
:101C2000844662440220D071AA6894466144A96047
:101C30006A6891424ED292B28BB2D21A92B2EB7CC7
:101C40009B0637D52B8A98469A4200D890462B6837
:101C50009C4661444246E86802F076FDE96862010C
:101C60003A4B9B1819616301384AD21851694346AF
:101C70009B049B0C890B89030B4353615169364BC1
:101C80000B405361002E07D1012F5DD04A22630122
:101C900032498C4663441A70083464012D4B9C46CB
:101CA00064448023637104BC9046F0BD0021A7E723
:101CB0001BB2ABE780239B019A4207D890462B6862
:101CC00059186201214B9B181961CCE780239B01B5
:101CD0009846F4E7EA7CD2060FD5EB7C10229343BA
:101CE000EB746201194B9B185A69920B910359616D
:101CF0005969194A0A405A61C4E7012F0DD064019D
:101D0000174A944664444A2222702A8A93420BD08E
:101D100000212800FFF766FEC5E76401104A9446DB
:101D200064444B222270F0E7EB7C40229343EB7437
:101D30000C4BDB68A87CA96898470028B3D1EB7CE2
:101D400040221343EB74E3E74E22A0E7D8060020BD
:101D5000FF03000000500041FF3F00F00951004127
:101D60000851004110060020F8B5DE4657464E46A1
:101D70004546E0B504000F00837C0F251D40002977
:101D800059D06A01714B9B185B681B019B0C9A46EA
:101D9000002F53D06A016D4B9B185B689B049B0C12
:101DA0009846268A6A4B9E4201D0013EB6B243460F
:101DB00033409B46E37C07221A409146002F07D010
:101DC0002B0008335B01634A944663440122DA71B5
:101DD000E37C9B0611D56268002A0ED092B223895B
:101DE000D21A92B22368A1688C4663441800E16855
:101DF000934500D25A4602F0A7FC6368002B20D11D
:101E0000E27CD2061DD5E37C1022934320221343AB
:101E1000E3744E496A01E3685350238A8A18516873
:101E20009B041B094C4801400B43536053689B0BB8
:101E30009903516047E000239A46A9E7002398469A
:101E4000AFE7002F1DD0228A93451AD2E37C1022DF
:101E50009343E374A3684344A3604B46012B66D0CD
:101E60006B013E4A9446634425221A70002D03D12B
:101E70006D01364BE268EA5000212000FFF7B2FD09
:101E800033E0A2685244A2609342E6D99BB291B279
:101E90005B1A9BB2E17C89062DD5218A8B4200D842
:101EA0001900E0686B01294A98506B012748C01857
:101EB00042688B041B0928490A4013434360436866
:101EC0009B0B9A034260002F08D14B46012B35D063
:101ED00025226B0122498C4663441A7008356D0136
:101EE0001C4B9C46654440232B713CBC9046994654
:101EF000A246AB46F8BD218A8B420BD980218901CD
:101F00008B420FD8B343190023689A186B010F480E
:101F10001A50CAE78B4208D2E17C20200143E174C9
:101F20001900F1E780218901EEE71900ECE76B0168
:101F30000A4A944663442D221A7097E76A01034BBC
:101F40009B1800229A762D32C3E7C046D80600209F
:101F5000FF03000000500041FF3F00F00851004126
:101F60000951004170B5894B1D8CADB2002D01D0D7
:101F70000024BFE0998B1B8B0B405A070DD49A05A8
:101F800015D41A0637D470221A423ED11A0757D4F4
:101F9000DB0700D568E0002306E004227B4B9A8330
:101FA0007B4B1B6898470123002BE1D070BD774B1A
:101FB000784A9A839A82923AFF3A1A830023012B35
:101FC00012D85801744A121812891207120F032AE4
:101FD00002D00133DBB2F2E76F4B1B1819894904B9
:101FE000490D00221A8100E00021694B5B68032043
:101FF00098470123D8E78022644B9A83644B5B683F
:102000000021052098470123CEE7604B9A839A82EE
:10201000604A1A83614B9B8C9B060CD45F4BDA6839
:10202000D0231340D02BF9D1594B5B6800210220FB
:1020300098470123B8E7594BDB68DB06FBD5F3E78C
:10204000524B0021802252009954F83A9A83683208
:102050009A82504A1A83FFF79BFD4D4B5B68002123
:102060000120984701239FE7484B4A4A9A839A8266
:10207000923AFF3A1A83464B5B6800210420984746
:10208000012391E7DA0607D45A0608D49B062FD518
:102090000021FFF78FFC2BE0FFF744FC28E0012133
:1020A000FFF788FC24E05A060FD41A0711D49A07C8
:1020B00013D4C17C07220A40012A19D15A0710D42F
:1020C000DB0615D5FFF72EFC12E00121FFF772FCAD
:1020D0000EE00121FFF7D6FC0AE00121FFF780FDA9
:1020E00006E00021FFF7CEFC02E00021FFF762FCD2
:1020F0000134E4B2082C00D958E7254BA20011198D
:10210000880001001030181804305B1826331B7843
:10211000FF2BEDD0827C0F23134001229A402A42EC
:10212000E6D01A000832520118498C466244D2792E
:102130005B011B498C4663441B781340D8D0C27C9A
:102140004721114001299DD052B2002AABDB9A06EB
:10215000CBD45A070DD4DA070FD4C17C07220A402A
:10216000012AC5D11A070CD4DB06C1D5FFF7DAFB6B
:10217000BEE70021FFF786FCBAE70121FFF7F4FD77
:10218000B6E70121FFF77EFCB2E7C04600500041F0
:102190001006002001020000D806002000080040C0
:1021A0000951004100B583B0002201AB5A70214BA8
:1021B0009B78DB071BD41F4B9B789B07FBD11D4BE8
:1021C0001B789B070CD51B4A137802218B43137095
:1021D000184B9B789B07FBD1164B9B789B07FBD436
:1021E0000122144B1A70134B9B789B07FBD1114BA8
:1021F0009B78DB07FBD4104B104A1A605A609A6038
:10220000DA601A61FFF7C4FCFFF762FB0422094B96
:102210001A70084B9B789B07FBD1064A084B536208
:1022200001AB5B7801210B43DBB21381002003B0CB
:1022300000BDC0460050004110060020CD1800002F
:10224000D8060020104B9B789B0719D10E4B9B782A
:102250009B07FBD10C4B1B78DBB29A0708D40222F8
:102260001343DBB2084A1370074B9B789B07FBD1E3
:102270008022064B1A60064A034B1A8300207047DF
:1022800011204042FBE7C0460050004100E100E061
:102290008D020000024A138901218B43138170478C
:1022A0000050004182B0064B1A7B92080323134072
:1022B00001AA0121117000215170D05C02B0704759
:1022C0000050004180235B421843C0B2014B98721A
:1022D0007047C04600500041F0B5C64600B5904674
:1022E0000F23034047B2002B05D0002F01DB1D0058
:1022F00002E09D1C00E01D002E00032421401C0074
:10230000022B00D96DE0AA0094466544AA009446C9
:102310003B4D654426352D78FF2D65D1002915D11B
:10232000002B03D0002F01DB0233DBB29D00EB1842
:102330009D00334B5B1926331B78FF2B57D163006D
:102340001B199D002F4BEB58002B53D0002F2FDB78
:1023500063001B199D002B4BEB585D1EAB41DBB29C
:10236000002B09D0002F2DDB63001B199D00254B8E
:102370005B191B89434540DB002F2ADB63001C19D6
:10238000A300204C1B599C461D4CB500AF19BB0047
:102390001F00E31862461A6242469A8401312733CD
:1023A0001970E41926342070002004BC9046F0BD5A
:1023B00063001B199D00134B5B195B685D1EAB41ED
:1023C000DBB2CDE763001B199D000E4B5B195B89E7
:1023D000D0E763001C19A5000A4B5B195B689C469B
:1023E000D2E712204042E0E714204042DDE714200B
:1023F0004042DAE713204042D7E713204042D4E7B7
:1024000010060020E44A0000F8B505000F2404403F
:1024100047B2F90F002C05D0002F01DB220002E0AB
:10242000A21C00E02200160093009B1898001030B8
:10243000214B18180430022C2ED893009A189300C0
:102440009C461D4B634426331B78FF2B24D003226C
:10245000FFF7DCFAB20092199100174B5B1820339A
:10246000DA7907231340012B17D0002F1BDB134A07
:1024700008356D01AB5C07218B43AB540E4BB100AB
:10248000881982009A182732002010708E19B20025
:102490009B182633FF221A70F8BD08356D01002203
:1024A000064BEA54EAE7054A08346401A35C70214C
:1024B0008B43A354E2E7C0461006002000500041C1
:1024C000F0B50F23034040B2002B05D0002801DBFC
:1024D0001E0002E09E1C00E01E00320019000831C0
:1024E0004901AF4C0C5DE4B2022B00D948E1B500C4
:1024F000AD19AE00AB49891926310978FF2900D101
:1025000041E15901A84E76189500AD18AF00A549D4
:10251000C9192031CD7907212940012936D0002859
:1025200000DAC5E0610700D036E19E489500AF189B
:10253000B90041182031C9794907490F0C431900E6
:1025400008314901964FCC55AA1891004018808C4B
:10255000820396490A4080218900884200D9F2E02E
:102560000139FF39884200D900E1802800D9FFE015
:10257000402800D9FEE0202800D9FDE0102800D92D
:10258000FCE0F839814289414942DDE0763121425F
:1025900000D0FBE0190008314901112480480C5497
:1025A0008049C919898C8803804C20408024A4006C
:1025B000A14210D8013CFF3CA14227D8802927D84E
:1025C000402927D8202927D8102927D8F83C8C4221
:1025D000A441644200E0072424072043706088047B
:1025E000800C8024A400A1421AD8013CFF3CA142E7
:1025F00054D8802954D8402954D8202954D8102997
:1026000054D8F83C8C42894149420AE00624E3E769
:102610000524E1E70424DFE70324DDE70224DBE708
:1026200007210907014371611900083149015C481C
:10263000844661444020487180240C715A4D5B01EE
:10264000EB18002199729976564E9400A3189900C0
:1026500071180B0026331B780F273B400F6A590176
:102660004F51A21894003619B28C6C186568920408
:1026700012094F4E35402A4362606268920B9503FF
:10268000656008335B016344B0221A715871494B8D
:102690009C46614410230B70002066E00621C0E7D1
:1026A0000521BEE70421BCE70321BAE70221B8E710
:1026B0007021214200D06CE03A489500AF18B90073
:1026C00041182031C9794907490E0C4319000831D6
:1026D0004901334FCC55AA1891004018818C8A04C7
:1026E000920C80208000814210D80138FF3881424E
:1026F0001FD880291FD840291FD820291FD810296A
:102700001FD8F83888428941494200E0072109076B
:102710000A4372611A000832520121498C46624410
:10272000802111715A01204B9B1800229A760020BB
:102730001BE00621EBE70521E9E70421E7E7032198
:10274000E5E70221E3E7072109070A4372601A005F
:102750000832520112498C466244402151715B019A
:10276000114AD31800229A720020F0BD0621EBE72F
:102770000521E9E70421E7E70321E5E70221E3E793
:1027800012204042F1E712204042EEE7142040427E
:10279000EBE714204042E8E714204042E5E7C0465A
:1027A0000050004110060020D806002000C0FF0F96
:1027B000FF3F00F009510041F0B50F23034040B244
:1027C000C40F002B05D0002801DB1A0002E09A1C80
:1027D00000E01A0015009000801882001032454871
:1027E00082180432022B00D980E0012917D0002979
:1027F00039D0AA00521991003E4B5B1826331A7843
:102800000F23134008335B013B4A94466344987995
:102810001023A3401840431E9841C0B2F0BDAA0047
:1028200051198B00C31826331B780F210B4010263B
:10283000A640F6B21900083149012F4FBC46614449
:102840004E712021A140CCB259012C4B9C466144D1
:102850000C7052199300C3182033DA7908210A4307
:10286000DA710020DAE7937C0F310B401900083150
:10287000490121488446614488791021A1400842D9
:1028800024D0C9B2180008304001604401712021F1
:10289000A140CEB25D011A4FBC4665442E70C0798E
:1028A00008420AD01900083149011348844661449E
:1028B000CE710120A040C0B20871D07C0721014038
:1028C000012905D0D37C08218B43D3740020A5E7D0
:1028D00008335B0108498C466344997930231942D7
:1028E000F4D1030008218B43D374EFE71220404258
:1028F00094E7C046100600200050004109510041F5
:102900000851004170B50E000F2404406201184BBD
:102910009B1819685D68AD04AD0C022C1FD8002E01
:1029200020D0230008335B01124A9B5C112B1CD181
:10293000230008335B0194466344DB79DB0601D452
:10294000002070BD0822300001F0FEFE0834640152
:10295000084B9C4664441023E3712800F1E71220E1
:102960004042EEE712204042EBE713204042E8E706
:10297000D806002000500041F0B5DE4657464E46CE
:102980004546E0B585B08046057A0F232B406DB2F1
:10299000EA0F9146002B05D0002D01DB180002E064
:1029A000981C00E0180006005F4982001718BC0060
:1029B00010340C190434B80009188A8C5B498A4217
:1029C00042D0571EBFB2414649680F40022B00D982
:1029D000A1E043461B68564883420CD9C8180190B1
:1029E000544884460198604505D89B0703D1002DC3
:1029F0002CDB91422DD2B3009B199A004A4B9B18B5
:102A00001B6A002B00D189E001230193002D0ADB12
:102A1000002F08D0B3009B199A00434B9B181B6AE8
:102A2000002B00D17DE0B200921991003E4B5B1863
:102A30002033DB791B070FD5022005B03CBC904644
:102A40009946A246AB46F0BD1700BCE700230193B0
:102A5000DCE700230193D9E703A8FDF7BBFBB20035
:102A600092199100304B5B182033DB795B0630D430
:102A7000B3009B199A002C4B9B46934420235B4444
:102A80009A46DB79402213435246D37103A8FDF7DF
:102A9000A8FB5B46424612685A61424652689A61F8
:102AA00000235A46D3614B46DB015246D2797F213F
:102AB0001140019A52010B4320218B431A43534684
:102AC000DA7143465B7A002B08D0002F1BD000221E
:102AD00005E003A8FDF785FB0120AEE70022B30067
:102AE0009E19B100104B5B1820331101DA791020C8
:102AF00082430A43DA71002D07DB00212000FFF733
:102B000033F9002099E70122E9E700212000FFF7CF
:102B100067F8002091E7122040428EE713204042E0
:102B20008BE71220404288E710060020FF030000D8
:102B3000FFFFFF1FFF3F0020002906D0012806D01D
:102B4000002801D1034B196070470349F6E7014B98
:102B50005960F9E710060020CD180000002908D0C0
:102B6000002808D0012809D0022806D1054B196198
:102B700003E00549F4E7034B99607047014BD960C6
:102B8000FBE7C04610060020CD18000010B5FFF787
:102B9000E9F910BD024A1378013313707047C0463B
:102BA00038070020024A1378013313707047C0467B
:102BB0003A070020024A1378013313707047C04669
:102BC0003907002010B582B001A8FDF703FBC02132
:102BD000C9058023CB58A0220848825890200C5861
:102BE00054401C40544001A8FDF7FBFA0223234047
:102BF0005A1E9341024A137002B010BD00440041B6
:102C0000A4280020024B187800221A707047C04692
:102C10003A070020F0B5C64600B5C022D20594267A
:102C200080231B06935188255351284BA8208021CF
:102C3000C9058846195026491950DF218C465C5C2D
:102C4000DE398C436746DC5591515151214C1C5063
:102C5000C02424061C502C36B4469E5D8E43674625
:102C6000DE550826566196601B4E9E629C62432686
:102C7000B4469E5D8E436746DE5510265537D651C5
:102C80005651164D1D501C50C4255C5D8C435C553F
:102C9000802424049461946044469C62104C9C629D
:102CA0006D3D5C5D8C435C55373D842415510D4A68
:102CB0001A500D4A1A50C522985C803CA043985483
:102CC000985C8843985404BC9046F0BD0044004191
:102CD000008000C0010000400800004010000040DB
:102CE000800000C020000240000002C0F8B5DE46AF
:102CF00057464E464546E0B5C020C00580239B039D
:102D0000836183603B4B8022D20590469A623A4AA7
:102D10009A6255215A5C0124A446A2435A54942233
:102D2000924680225202514642500C398946425006
:102D3000A73442461A51314A1A5148315A5C654605
:102D4000AA4301273A43D2B25A5418395A5C0F2683
:102D5000B2430225AB465D462A43D2B25A54802282
:102D60009202554642514D46425142461A51244A1A
:102D70001A5129341A5D6546AA433A43D2B21A550C
:102D80005C5C0F22144020221443E4B25C54802285
:102D9000520342601B4A9A621B4A9A625422995C0F
:102DA000042081439954995CA9433943C9B2995489
:102DB0003A215A5CB24358460243D2B25A54134A9B
:102DC000136A46310B431362114A124B5A80124C5C
:102DD00012492000FDF784FB11492000FDF70CFC8F
:102DE0002000FDF7A5FB3CBC90469946A246AB46A9
:102DF000F8BDC04600440041200000C0010000C0F2
:102E0000020000C000000240100002C000040040A8
:102E100019400000000C004080280020001C0042E7
:102E2000AC28002010B503000A0003490868190007
:102E3000FDF722FB10BDC046AC280020F0B5CE4601
:102E400000B52B4A136A10210B431362294B2A4AFF
:102E50005A802A4A5A802A492A48FDF7BDFA2A4C44
:102E60004822A35C042189468B43A354A35C01251B
:102E7000AB4301273B43DBB2A354143AA35C0F26B8
:102E8000B34303210B43DBB2A3544921635C48469F
:102E900083436354635CAB433B43DBB26354A35C47
:102EA0003A390B4030210B43DBB2A3541749154884
:102EB000FDF7DEFA1348FDF7ABFA8022D200C023FB
:102EC000DB055A60124BA362124BA3624A22A35C39
:102ED00049468B43A354A35CAB433B43DBB2A354AF
:102EE000153AA35CB343A35404BC9146F0BDC0465D
:102EF00000040040000C0040164000001343000096
:102F0000001000421028002000440041A8280020A2
:102F100000040240000002C070B50C00150001B2B0
:102F2000064E802212013000FDF776FA2B002200B7
:102F300000213000FDF77AFA70BDC046102800204D
:102F4000F8B51E4A136A40210B4313621C4B1D4AFD
:102F50005A801D4A5A801D4C1D492000FDF73CFA3D
:102F60001C4BCC20195C042291431954195C012696
:102F7000B14301252943C9B219541638195C0F27EA
:102F8000B94302273943C9B21954CD215F5C974335
:102F90005F545A5CB2432A43D2B25A541A5CBE39C7
:102FA0000A4020210A43D2B21A540B492000FDF7EF
:102FB0005FFA2000FDF72CFAF8BDC046000400407F
:102FC000000C004018400000134300004828002077
:102FD00000180042004400419C28002010B5030066
:102FE0000A00034908681900FDF760FA10BDC046E1
:102FF0009828002000B583B06B46D91D0870034B9C
:1030000018680122FDF738FA03B000BD98280020A7
:1030100010B582B06B46DC1D00232370044B18688A
:1030200001222100FDF742FA207802B010BDC0460F
:103030009828002070B5C024E4050425A56101206E
:10304000FDF7E2F865611420FDF7DEF870BD0000C1
:10305000F0B5C64600B53E4A136A08210B43136219
:103060003C4A3D4B5A803D4C3D492000FDF738FA23
:103070003C492000FDF7C0FA2000FDF759FAC025B1
:10308000ED0501266E61AE60374C384BA362C0215E
:103090000906A1624022A35CB34301273B43DBB294
:1030A000A35430239C46E35C313A90469343032279
:1030B0001343DBB26246A35402236B61AB602C4B1B
:1030C000A362A1621132A35CB3433B43DBB2A354BE
:1030D0006346E25C213B1A4030231A43D2B2634676
:1030E000E2548023DB026B60224BA362224BA3627B
:1030F00052239C46E35C0422934360462354235CA2
:10310000B3433B43DBB223543927E35D404683435B
:1031100002200343DBB2E3556A61AA60174BA36246
:10312000A1623E32A35CB343A354FFF783FF802325
:103130005B05AB61AB608023DB05A362104BA36230
:103140005C22A35CB343A35404BC9046F0BDC046CC
:103150000004004015400000000C00403028002012
:10316000000C00429828002000440041010000406B
:103170000200004000000240040002C004000040C1
:10318000001000C0002805D180221204C023DB05F6
:103190005A61704780221204C023DB059A61F8E768
:1031A000F8B5DE4657464E464546E0B5634A136AD3
:1031B000042423431362624A624B5A80624D63497E
:1031C0002800FDF78DF962492800FDF715FA28005F
:1031D000FDF7AEF9C022D2051023536193605D4B19
:1031E0005D499962C02109068B46996244269D5D1E
:1031F00001218D430120814648460543EDB29D558E
:1032000032255E5D0F208446864303273E43F6B297
:103210005E55202656619660504E9E6258469862D2
:10322000452080461E5C8E4348460643F6B2404623
:103230001E545E5D363806403020804640460643C8
:10324000F6B25E5540265660454D9D62454D9D62E5
:10325000462080461D5CA5431D541D5C8D43484699
:103260000543EDB240461D5433255C5D6046844302
:103270003C43E4B25C5580249461893016509461DB
:103280009460394880469862584698621435585D73
:103290008843585598201650103881461650683685
:1032A0003248985158469851C6208246185C884347
:1032B0008446504667461F543B30FF30844698276B
:1032C000D051484667461750294F9F51584698514C
:1032D000C927DE5D8E43DE55946194604046986256
:1032E000584698625C5D8C435C558024240394614D
:1032F00094608024E4059C621E4C9C620C355C5DED
:103300008C435C5580242402546194601A4C9C6266
:103310009862043D5C5D8C435C558024E4015461FB
:103320009460164A9A6298624E201A5C8A431A5434
:103330003CBC90469946A246AB46F8BD000400400E
:1033400014400000000C00406828002000080042E3
:10335000B028002000440041100000402000004040
:1033600040000240000002C08000004040000040D9
:1033700000020040080000C0008000400040004003
:10338000F8B5DE4657464E464546E0B5434A444BFF
:103390005A80C022D205842502235351414BA820D4
:1033A0004149195041498A461950C124195D0426E2
:1033B000B146B1431955195D0127B943012631437F
:1033C000C9B21955B0218C46595CB23C21406446C3
:1033D0001955802149008B465151354919505146A4
:1033E00019505946515138398846595C0424A4462D
:1033F00064462143C9B24446195598215C4654504D
:103400004146595CB9433143C9B244461955B421C8
:103410008846595CB93CA143444619558021C900EE
:10342000516024499962514699624A218846595C03
:103430004C46A14344461955195DB9433143C9B2BD
:10344000195535218846595C3B3CA14344461955E2
:103450008021C905884651511749195017491950FB
:10346000414651513630195C64462143C9B2195462
:103470009421444654501A5CBA433243D2B21A548F
:103480002B315A5CCF3882435A54FCF7EBFE3CBCDC
:1034900090469946A246AB46F8BDC046054000009E
:1034A000000C00400044004102000240000002C045
:1034B000000102400004024000000240004002C03F
:1034C000F0B5C64600B5264BDA6920210A43DA6119
:1034D0005A6920310A435A61224A234B5A80FDF728
:1034E000B7F9C024E40580225204A2601F4B802754
:1034F000FF059F621E49996262615820195C04228F
:10350000904691431954195C0126B1430125294382
:10351000C9B219541C38195C0B32914306229446E7
:1035200062461143C9B2195480218904A1609F6287
:10353000104F9F62616159215C5C424694435C5428
:103540005A5CB2432A43D2B25A541A5C4A390A40EE
:1035500060210A43D2B21A5404BC9046F0BDC04662
:103560000004004006400000000C00400044004100
:10357000000100C0000200C010B5FDF737FBFFF7E7
:1035800049FBFFF7B3FBFFF70BFEFFF7D9FCFFF793
:1035900055FCFFF75DFDFFF7F3FEFFF791FF0849CC
:1035A0002120FCF777FE07492820FCF773FE064927
:1035B0000A20FCF76FFE05493E20FCF76BFE10BDAC
:1035C000C52B0000952B0000A52B0000B52B00009B
:1035D000010002099300D2185300DBB20F2008400B
:1035E0001818C0B2704710B582B0040007226946AF
:1035F0003220FFF791FC6B461878FFF7E9FF207047
:103600006B465878FFF7E4FF60706B469878FFF7D9
:10361000DFFFA0706B46DB7823726B461879FFF7EB
:10362000D7FFE0706B465879FFF7D2FF20716B46E9
:103630009879FFF7CDFFE08002B010BD10B5FFF71D
:10364000D9FCFFF7E5FCC0B210BD10B50020FFF7B4
:1036500099FD10BD10B50120FFF794FD10BD30B5E8
:1036600083B00500FFF7F1FF9F20FFF7E7FF01ACF4
:1036700003212000FFF7B2FC23786B706378AB70F6
:10368000A3782B70FFF7E6FFFFF7DFFFAB20FFF714
:10369000D5FF03212000FFF7A1FC23781B046A68F3
:1036A0001343627812021343A27813436B60FFF74F
:1036B000D1FFFFF7CAFF9020FFF7C0FF03212000D2
:1036C000FFF78CFC63782B72FFF7C4FF2878C238B1
:1036D00042424241D0B203B030BD000010B50848AC
:1036E00000F07CFE3521074800F0E8F9064800F0BC
:1036F000A7FE00F0C3FEFA204000FCF785FD10BDD8
:103700003C070020084B00000000002010B5174CBB
:103710004021200000F004FA2378A42B0ED05F3360
:10372000DBB2022B08D8114B98780002DB78C01866
:1037300080B20F4B98420FD9012010BD0B494A7936
:103740001202887912180B480280C8780A4A107051
:1037500049780A4A1170E2E7C000094B181808229C
:103760000249053100F0F0FFE6E7C046840700207B
:10377000FF010000C4270020C6270020C727002023
:10378000C4070020F8B5FFF7F7FE3648FFF767FFDC
:10379000FFF7A4FF3449002000F0D6F94021334858
:1037A00000F0BEF938E0EB003148C0180821FFF7FF
:1037B00039FBC024E4058026360366610120FCF74E
:1037C00017FDA66180273F02A7612A48FCF710FD7C
:1037D00008212948FFF726FB66610A20FCF708FD4F
:1037E000A6616761FA200001FCF702FD0135ADB268
:1037F000224B1B889D42D6D3214B1B78002B22D114
:10380000C023DB058022D2015A6101219422995004
:10381000FFF7F8F900281BD10120FCF7F5FC194B44
:103820001B78002BF4D0C023DB050121982299508E
:103830008022D2019A619620FCF7E6FC0022114B0F
:103840001A700025D4E7FA208000FCF7DDFCD7E7EA
:10385000802109069C23C022D205D1500A48FFF7D7
:10386000C2FED9E7B42800200D37000084070020ED
:10387000C4070020C40900007C070020C4270020E2
:10388000C7270020C62700204C00002010B5CB78A9
:10389000212B04D0222B09D00D20404205E0074BFC
:1038A00019680A78002300F0A6FA10BD034B596886
:1038B0009A68002300F09FFAF7E7C046D42700205B
:1038C000F8B505000C00160000F0DCFDA179E279E6
:1038D00012020A432378812B19D05F090321394052
:1038E000012946D1217967793F020F432649097B97
:1038F0008F4241D15BB2002B41DB6378092B28D08A
:103900000B2B1CD0032B12D00D20404216E0617807
:103910000629E2D127796179090239431A4F3F7BA1
:10392000B942DAD121002800FFF7B0FF06E00023FA
:10393000012215490F31280000F05DFAF8BDA27888
:10394000114BDA73002300220021280000F053FA03
:10395000F4E7002E07D00D4B1B68002B12D011008E
:1039600098470020EAE700230100280000F043FA0E
:10397000E4E70A204042E1E70A204042DEE70D206A
:103980004042DBE70020D9E7D4270020E8270020C9
:10399000F8B50E0087680B68002B3FD09A785B79EA
:1039A000032B3ED13B7B9A423ED0FF2B3FD13A7353
:1039B00008680378C0182122496800F071FD204B87
:1039C0001860002405E07D732800FCF7C7FF013470
:1039D000E4B2012C1CD830680378C018716800F07C
:1039E0006EFD3060002825D08578C1780279437952
:1039F0001B02D21892B22800FCF770FF00281CD1DD
:103A00006BB2002BDFDBBD732800FCF7A7FFDEE7FE
:103A10000B4B0122DA731A740020F8BD0A204042D1
:103A2000FBE70A204042F8E712204042F5E71C205D
:103A30004042F2E70A204042EFE714204042ECE720
:103A4000D427002010B58468002903D00B685B7967
:103A5000032B17D1237BFF2B01D0FF232373607B24
:103A6000FF2803D0FCF768FFFF236373A07BFF28C8
:103A700003D0FCF761FFFF23A3730022034B1A74EA
:103A8000002010BD0A204042FBE7C046D42700209A
:103A900010B501290AD0002904D002290AD11B201F
:103AA000404210BD1100FFF773FFFAE71100FFF766
:103AB000C9FFF6E70D204042F3E7000070B50400AF
:103AC0000D00002814D0002915D000F0E1FC0128D9
:103AD00014D80C4B5C609D600B480C4A42608360BC
:103AE00000F0A4FC0A49012000F05EFC002070BD3B
:103AF0000D204042FBE70D204042F8E711204042F4
:103B0000F5E7C046D4270020C8270020913A0000DE
:103B100058000020014B187C7047C046D427002075
:103B200070B504000D00FFF7F5FF002807D0054B26
:103B3000987B00232A00210000F05DF970BD112060
:103B40004042FBE7D427002070B504000D00FFF7CA
:103B5000E1FF00281CD0012C0ED0002C04D0022C38
:103B600012D00D20404206E00B4B987B2A00022128
:103B7000FCF7D2FF002070BD074B587B2A000221C2
:103B8000FCF7CAFF0020F6E7044B1D600020F2E7B7
:103B900011204042EFE7C046D4270020E82700204C
:103BA00010B5064B5C6905E0002201212000636826
:103BB00098472468002CF7D110BDC046EC270020A0
:103BC00010B5064B9C6800E02468002C04D06368A4
:103BD000002BF9D09847F7E710BDC046EC2700202E
:103BE00070B506000D00074B1C6900E02468002C2E
:103BF00006D06368002BF9D0290030009847F5E71C
:103C000070BDC046EC270020F8B507000E00150077
:103C10000B4BDC6800E02468002C0DD06368002B9F
:103C2000F9D02A00310038009847002806D00A3021
:103C3000F1D00120404200E00020F8BD0120FCE767
:103C4000EC27002010B5FFF7BBFF10BD10B5010039
:103C500001220020FFF7D8FF002010BD10B5FCF7AF
:103C600039FE10BD10B504000378002B12D1437843
:103C7000052B12D0092B0DD18278104BDA77827880
:103C8000C3781B02134306D103210C4B9977012003
:103C9000FFF7A6FF10BD0421F7E78078FFF7DEFFEE
:103CA000A278E3781B02134306D00321034B9977D4
:103CB0000120FFF795FFEDE70221F7E7EC27002051
:103CC00010B5002903D0012906D0002003E0100020
:103CD000FFF7C8FF002010BD1000FFF7B7FFFAE79D
:103CE00030B583B0041E15D0FCF7F0FD022815D0C6
:103CF000002000281ED0002846D08178C3781B02FF
:103D0000C91889B241180191042200F0C9FB009042
:103D1000FF2421E0FFF744FF012033E01B4B5B68E9
:103D2000002B05D018685968220000F0DAFBE0E7A4
:103D30000020DEE7154B1B6818685968220000F068
:103D4000D0FBD8E72C0000980378C018009004221C
:103D5000019900F0A5FB0090009B002B11D09D78ED
:103D6000AC42F0D0094B5C69002CEBD06A460021D4
:103D7000200063689847002801D02468F4E72C00ED
:103D8000E1E7012003B030BD0020FBE7EC27002075
:103D900010B5FFF705FF0E4C0223A3770023E3774E
:103DA0002122A3540020FCF7C7FD2023E05CFCF790
:103DB000BBFD084A00210020FCF7AEFE064A0221A6
:103DC0000020FCF7A9FE0020FCF7C8FD10BDC0468E
:103DD000EC27002069430000C13C000010B500281A
:103DE00002D0012804D010BD0020FFF7F9FEFAE749
:103DF000FFF7CEFFF7E710B584B001AC0191029256
:103E0000207263722000FCF7CDFD04B010BD10B528
:103E100004000A781F231340022B12D18A79CB7930
:103E20001B02134301D000200CE008790021FCF7AD
:103E300043FE0123002200212000FFF7DCFF0120C8
:103E400000E0002010BD10B504000A781F231340C5
:103E5000022B12D18A79CB791B02134301D00020A7
:103E60000CE008790121FCF727FE01230022002144
:103E70002000FFF7C0FF012000E0002010BD00007F
:103E800070B582B006000D00FCF720FD022813D0AB
:103E9000002000281DD000285BD000908178C378D6
:103EA0001B02C91889B241180191042200F0F8FAE6
:103EB000002820D100204FE0294B5B68002B06D062
:103EC00018685968264BDA7F00F00BFBE1E7002009
:103ED000DFE7234B1A6810685168DA7F00F001FBB6
:103EE000D9E700980378C01800900422019900F0E7
:103EF000D7FA00282FD08378AB42F2D1C378B342EF
:103F0000EFD10090164B5C69002C20D06A4601214D
:103F1000200063689847002801D02468F4E76368AC
:103F20006A46002120009847002817D1002E06D0AD
:103F30000122AA400A482121435C13434354002331
:103F4000002200210020FFF756FF012004E000209E
:103F500002E0002000E0002002B070BD0020FBE77E
:103F6000EC27002010B504004B780B2B2DD89B00BC
:103F7000174AD3589F46012300220021FFF73BFF39
:103F800043425841C0B210BD8878FFF7A9FE00280F
:103F9000F9D00123002200212000FFF72CFF43422B
:103FA0005841C0B2EFE7FFF732FFECE7FFF74BFFF6
:103FB000E9E70A794B791B0213438A78C878000233
:103FC00010431900FFF75CFFDDE70020DBE7C04688
:103FD000404B000070B505008B79CC7924021C435E
:103FE000122C00D91224FCF771FC02280DD00021FC
:103FF000002917D0002920D0002322002800FFF735
:10400000FAFE002817D1012070BD0D4B5B68002B14
:1040100006D018685968012200F042FA0100E7E76B
:104020000021E5E7064B1B6818685968012200F07B
:1040300037FA0100DEE70020E6E70020E4E7C046AB
:10404000EC270020F8B505008B79CE7936021E43A7
:104050008F7820231E4AD45C013C344063425C418B
:10406000E4B2FCF733FC022815D00021002920D04F
:1040700000292AD08A78CB781B02D21892B29642B5
:1040800001D83200002423002800FFF7B4FE0028E6
:1040900019D10120F8BD0E4B5B68002B07D01868C2
:1040A00059687A1CD2B200F01CFA0100DEE7002148
:1040B000DCE7074B1B68186859680137FAB200F053
:1040C00010FA0100D4E70020E4E70020E2E7C04650
:1040D000EC27002070B505008B79CC7924021C43B5
:1040E000122C00D91224FCF7F1FB02280DD000217C
:1040F000002917D0002920D0002322002800FFF734
:104100007AFE002817D1012070BD0D4B5B68002B93
:1041100006D018685968062200F0C2F90100E7E7E6
:104120000021E5E7064B1B6818685968062200F075
:10413000B7F90100DEE70020E6E70020E4E7C0462B
:10414000EC270020F8B505008B79CE7936021E43A6
:104150008F7820231E4AD45C013C344063425C418A
:10416000E4B2FCF7B3FB022815D00021002920D0CF
:1041700000292AD08A78CB781B02D21892B29642B4
:1041800001D83200002423002800FFF734FE002865
:1041900019D10120F8BD0E4B5B68002B07D01868C1
:1041A00059687A1CD2B200F0BCF90100DEE70021A8
:1041B000DCE7074B1B68186859680137FAB200F052
:1041C000B0F90100D4E70020E4E70020E2E7C046B0
:1041D000EC27002070B505008B79CE7936021E439E
:1041E0008A78104B20215C5C013C344061424C4198
:1041F000E4B21B681868596800F0B3F900280FD0C2
:104200000278964201D832000024230001002800E1
:10421000FFF7F1FD002801D1012070BD0020FCE76F
:104220000020FAE7EC27002010B5CB78072B12D836
:104230009B000A4AD3589F46FFF7CCFE10BDFFF7FC
:1042400001FFFBE7FFF746FFF8E7FFF77BFFF5E726
:10425000FFF7C0FFF2E70020F0E7C046704B000018
:1042600030B583B004000A781F231340DAB2012A64
:1042700003D9022B12D000200EE0002301930D4D34
:10428000022201A9A86900F05FFAA96900230222AD
:104290002000FFF7B0FD012003B030BD08790221F6
:1042A000FCF70AFC002803DB012318400190E6E735
:1042B0000020F1E7EC27002070B50500174B5C6982
:1042C00021229A5C017943791B020B431A41D307DF
:1042D0000AD5002C1FD02A000221200063689847CD
:1042E00000280DDA2468F4E70C4B002299690A7063
:1042F0009969002301320020FFF77DFD01200BE0CA
:10430000064B9A6910709969002301220020FFF77B
:1043100072FD012000E0002070BDC046EC270020A7
:1043200010B54B78062B0DD007D9082B0DD00A2BD2
:1043300016D10800FFF7C0FF06E0002B10D1FFF7F1
:104340008FFF01E0FFF770FF10BD064BDA7F996920
:104350000A70996900230122FFF74DFD0120F3E760
:104360000020F1E7EC27002070B505000C000022CA
:10437000FFF74AFC431C14D0012813D023781F22D6
:10438000934304D0DBB2802B06D000200AE021004A
:104390002800FFF7E7FD05E021002800FFF7C0FF38
:1043A00000E0002070BD000010B5012809D00028F1
:1043B00002D002280AD010BD07480830FCF7E2FB03
:1043C000F9E705480C30FCF7DDFBF4E70248103054
:1043D000FCF7D8FBEFE7C046EC27002070B50400DF
:1043E000431E9841C0B20C4A0C49FCF7BBFBFCF7DA
:1043F0002FFA00280FDB0A4D24220021280000F0AC
:10440000E5F9AC6107490020FCF754FA06490120A0
:10441000FCF750FA002070BD55030000904B0000DF
:10442000EC270020453C0000DD3D000010B50100F8
:1044300002481430FCF7A6FB10BDC046EC27002054
:1044400010B50D4B9B7F002B10D1002811D00A4BCB
:104450001860020008325A600268D179202299540B
:104460001F3A9A77FCF72AFA002010BD0420404238
:10447000FBE709204042F8E7EC27002010B5FCF7E5
:1044800021FA10BD014B98697047C046EC27002007
:10449000024B987FC30600D510207047EC27002000
:1044A00010B5884207D20378012B06D9447894428C
:1044B00002D0C018F5E7002010BD0020FCE78842BC
:1044C00009D20378012B08D94278042A07D0052A9B
:1044D00002D0C018F3E7002070470020FCE700205E
:1044E000FAE770B50C0015000222FFF7D9FF00288B
:1044F00012D0A0420FD20378012B0ED94378022BA1
:104500000DD14379AB4207D08378C27812029B1851
:104510009BB2C018EDE7002070BD0020FCE7002032
:10452000FAE770B50C0015000722FFF7B9FF002865
:1045300012D0A0420FD20378012B0ED94378072B5B
:104540000DD14379AB4207D08378C27812029B1811
:104550009BB2C018EDE7002070BD0020FCE70020F2
:10456000FAE770B50D0016000024A8420ED203220F
:104570002900FFF795FF002809D00378012B07D900
:10458000B44204D00134E4B2C018EEE7002070BD9C
:104590000020FCE7002243088B4274D303098B42BE
:1045A0005FD3030A8B4244D3030B8B4228D3030C03
:1045B0008B420DD3FF22090212BA030C8B4202D3A5
:1045C0001212090265D0030B8B4219D300E0090ACD
:1045D000C30B8B4201D3CB03C01A5241830B8B42D6
:1045E00001D38B03C01A5241430B8B4201D34B03BF
:1045F000C01A5241030B8B4201D30B03C01A524124
:10460000C30A8B4201D3CB02C01A5241830A8B42A8
:1046100001D38B02C01A5241430A8B4201D34B0291
:10462000C01A5241030A8B4201D30B02C01A5241F5
:10463000CDD2C3098B4201D3CB01C01A52418309A9
:104640008B4201D38B01C01A524143098B4201D3E3
:104650004B01C01A524103098B4201D30B01C01A0E
:104660005241C3088B4201D3CB00C01A5241830888
:104670008B4201D38B00C01A524143088B4201D3B5
:104680004B00C01A5241411A00D201465241104615
:104690007047FFE701B5002000F006F802BDC046F4
:1046A0000029F7D076E770477047C04610B5002361
:1046B000002802D000F004F8431C180010BDC046CA
:1046C000414208401C2101231B04984201D3000CE5
:1046D00010391B0A984201D3000A08391B09984275
:1046E00001D30009043902A2105C401A7047C04689
:1046F0001B1C1D1D1E1E1E1E1F1F1F1F1F1F1F1FD9
:1047000070B50D4E0D4D0024AD1BAD1005D0A300AE
:10471000F35801349847A542F9D100F047FA084E02
:10472000084D0024AD1BAD1005D0A300F358013493
:104730009847A542F9D170BDB84B0000B84B0000B6
:10474000B84B0000C04B0000F0B505000F2A2FD970
:104750000B0003439B0734D116000C000300103EEE
:10476000350901352D01451927681F6067685F60AD
:10477000A7689F60E7681034DF6010339D42F3D173
:104780000F239E431036851989191340032B1AD91C
:104790001E1F0023B4080134A400CF58EF50043387
:1047A000A342FAD10324A643331D2240C918ED18B1
:1047B000002A05D00023CC5CEC5401339342FAD19B
:1047C000F0BD0500F6E71A00F2E7C046F0B5830732
:1047D00043D0541E002A3FD0CEB20200032502E08F
:1047E0001A00013C38D3531C16702B42F8D1032C0D
:1047F0002AD9FF220A40150215432A0415430F2C1B
:1048000014D927001A00103F3E09013636019E19BF
:10481000156055609560D56010329642F8D10F2230
:1048200097431037DB191440032C0DD91A00271FAA
:10483000BE080136B6009E1920C2B242FCD1032246
:1048400097430437DB191440002C05D0C9B21C195A
:10485000197001339C42FBD1F0BD14000300C6E780
:10486000034B10B5002B02D0024800F005F810BD34
:10487000000000008948000010B50100002300225C
:10488000002000F01FF810BD70B5094B094CE41A68
:10489000A41009D0084AA518AD00ED182B68013CFA
:1048A0009847043D002CF9D100F08AF970BDC0464C
:1048B000CC4B0000D04B0000FFFFFF3F7047C046CD
:1048C0007047C046F0B54E464546DE465746E0B511
:1048D000364D83B00600286898460F009146FFF7D2
:1048E000EDFF334B1C68A4235B00E058002852D036
:1048F00043681F2B13DC5A1C0192002E28D1019A09
:1049000002339B0042601F502868FFF7D9FF002048
:1049100003B03CBC90469946A246AB46F0BD254B41
:10492000002B3DD0C820400000E000BF002837D059
:10493000A42200235200A15843600160A0504032DD
:10494000835004328350013301930023002ED6D0CC
:104950009A00924682444A46882154466250C422B4
:104960005200914681444A468739994012688B46E5
:104970000A4394464A4661461160842241465200E9
:10498000A150022EBBD102005C468D32FF3211686D
:104990000C431460B3E720004D30FF30E050A7E730
:1049A0002868FFF78DFF01204042B1E7880400200E
:1049B000A84B0000000000002E2E2F68616C2F73A2
:1049C00072632F68616C5F6932635F6D5F73796ECC
:1049D000632E63002E2E2F68616C2F7372632F6815
:1049E000616C5F696F2E63002E2E2F68616C2F73D0
:1049F00072632F68616C5F7370695F6D5F73796E4E
:104A0000632E63002E2E2F68616C2F7574696C7392
:104A10002F7372632F7574696C735F6C6973742E76
:104A2000630000002E2E2F68706C2F6569632F685D
:104A3000706C5F6569632E63000000000100000078
:104A40002100000008000000280000000A0000000B
:104A50000A0000000E0000003E0000002E2E2F680D
:104A6000706C2F736572636F6D2F68706C5F736508
:104A700072636F6D2E6300000200000014002000BE
:104A800000010000313200000000D700006CDC02A1
:104A9000040000001400200000010000313200007A
:104AA0000000D700006CDC020C00200000000200B7
:104AB000000000000300FF01000C002000000002C5
:104AC00000000000000300FF01010C002070000046
:104AD0000200000000000500FF010500254A00005B
:104AE0000408000050050020000000004000000005
:104AF000900500200000000040000000D0050020CC
:104B0000000000004000000006FFFF0901A10109AC
:104B1000020903150026FF0075089540810209046B
:104B20000905150026FF0075089540910209060940
:104B300007150026FF0075089504B102C0000000AB
:104B4000CA3F0000A63F0000CA3F0000AC3F000083
:104B5000CA3F0000763F0000CA3F0000CA3F000085
:104B6000CA3F0000883F0000CA3F0000B23F00007B
:104B700056420000384200003E4200005042000011
:104B80005642000056420000444200004A420000E3
:104B90002E2E2F7573622F6465766963652F75738A
:104BA0006264632E6300000060000020F8B5C04618
:104BB000F8BC08BC9E46704761480000DD0000005C
:104BC000F8B5C046F8BC08BC9E467047B50000006A
:104BD000100000204B00002000000000000000003A
:104BE0001201000200000040EB0303240001010257
:104BF000000109022900010103E03209040000025A
:104C00000300000009211001210122350007058160
:104C100003400001070501034000010000361704AE
:104C20000C00E7070100000000000000C138000090
:104C3000000000004C030020B40300201C040020EE
:104C40000000000000000000000000000000000064
:104C50000000000000000000000000000000000054
:104C60000000000000000000000000000000000044
:104C70000000000000000000000000000000000034
:104C80000000000000000000000000000000000024
:104C90000000000000000000000000000000000014
:104CA0000000000000000000000000000000000004
:104CB00000000000000000000000000000000000F4
:104CC00000000000000000000000000000000000E4
:104CD00000000000000000000100000000000000D3
:104CE0000E33CDAB34126DE6ECDE05000B00000098
:104CF00000000000000000000000000000000000B4
:104D000000000000000000000000000000000000A3
:104D10000000000000000000000000000000000093
:104D20000000000000000000000000000000000083
:0C50500000000000000000000429002007
:00000001FF
